{
  "address": "0x561002b9991332045E465440b981a32914F935c9",
  "abi": [
    {
      "inputs": [
        {
          "internalType": "string",
          "name": "message",
          "type": "string"
        }
      ],
      "name": "ERROR_CarPooling",
      "type": "error"
    },
    {
      "inputs": [
        {
          "internalType": "address",
          "name": "",
          "type": "address"
        },
        {
          "internalType": "uint256",
          "name": "",
          "type": "uint256"
        }
      ],
      "name": "addressToRides",
      "outputs": [
        {
          "internalType": "uint256",
          "name": "",
          "type": "uint256"
        }
      ],
      "stateMutability": "view",
      "type": "function"
    },
    {
      "inputs": [
        {
          "internalType": "uint256",
          "name": "rideId",
          "type": "uint256"
        }
      ],
      "name": "bookRide",
      "outputs": [],
      "stateMutability": "payable",
      "type": "function"
    },
    {
      "inputs": [
        {
          "internalType": "uint256",
          "name": "rideId",
          "type": "uint256"
        }
      ],
      "name": "cancelRide",
      "outputs": [],
      "stateMutability": "nonpayable",
      "type": "function"
    },
    {
      "inputs": [
        {
          "internalType": "uint256",
          "name": "",
          "type": "uint256"
        }
      ],
      "name": "completionStatus",
      "outputs": [
        {
          "internalType": "uint256",
          "name": "",
          "type": "uint256"
        }
      ],
      "stateMutability": "view",
      "type": "function"
    },
    {
      "inputs": [
        {
          "internalType": "uint256",
          "name": "mp",
          "type": "uint256"
        },
        {
          "internalType": "uint256",
          "name": "rf",
          "type": "uint256"
        },
        {
          "internalType": "uint256",
          "name": "t",
          "type": "uint256"
        },
        {
          "internalType": "string",
          "name": "td",
          "type": "string"
        }
      ],
      "name": "createRide",
      "outputs": [],
      "stateMutability": "nonpayable",
      "type": "function"
    },
    {
      "inputs": [],
      "name": "getAllRides",
      "outputs": [
        {
          "internalType": "address[]",
          "name": "",
          "type": "address[]"
        },
        {
          "internalType": "uint256[]",
          "name": "",
          "type": "uint256[]"
        },
        {
          "internalType": "uint256[]",
          "name": "",
          "type": "uint256[]"
        },
        {
          "internalType": "uint256[]",
          "name": "",
          "type": "uint256[]"
        },
        {
          "internalType": "uint256[]",
          "name": "",
          "type": "uint256[]"
        },
        {
          "internalType": "uint256[]",
          "name": "",
          "type": "uint256[]"
        },
        {
          "internalType": "string[]",
          "name": "",
          "type": "string[]"
        }
      ],
      "stateMutability": "view",
      "type": "function"
    },
    {
      "inputs": [
        {
          "internalType": "uint256[]",
          "name": "array",
          "type": "uint256[]"
        },
        {
          "internalType": "uint256",
          "name": "val",
          "type": "uint256"
        }
      ],
      "name": "getIndex",
      "outputs": [
        {
          "internalType": "bool",
          "name": "",
          "type": "bool"
        },
        {
          "internalType": "uint256",
          "name": "",
          "type": "uint256"
        }
      ],
      "stateMutability": "pure",
      "type": "function"
    },
    {
      "inputs": [
        {
          "internalType": "uint256",
          "name": "rideId",
          "type": "uint256"
        }
      ],
      "name": "getRide",
      "outputs": [
        {
          "internalType": "address",
          "name": "",
          "type": "address"
        },
        {
          "internalType": "uint256",
          "name": "",
          "type": "uint256"
        },
        {
          "internalType": "uint256",
          "name": "",
          "type": "uint256"
        },
        {
          "internalType": "uint256",
          "name": "",
          "type": "uint256"
        },
        {
          "internalType": "uint256",
          "name": "",
          "type": "uint256"
        },
        {
          "internalType": "uint256",
          "name": "",
          "type": "uint256"
        },
        {
          "internalType": "string",
          "name": "",
          "type": "string"
        }
      ],
      "stateMutability": "view",
      "type": "function"
    },
    {
      "inputs": [],
      "name": "getUserRides",
      "outputs": [
        {
          "internalType": "address[]",
          "name": "",
          "type": "address[]"
        },
        {
          "internalType": "uint256[]",
          "name": "",
          "type": "uint256[]"
        },
        {
          "internalType": "uint256[]",
          "name": "",
          "type": "uint256[]"
        },
        {
          "internalType": "uint256[]",
          "name": "",
          "type": "uint256[]"
        },
        {
          "internalType": "uint256[]",
          "name": "",
          "type": "uint256[]"
        },
        {
          "internalType": "uint256[]",
          "name": "",
          "type": "uint256[]"
        },
        {
          "internalType": "string[]",
          "name": "",
          "type": "string[]"
        }
      ],
      "stateMutability": "view",
      "type": "function"
    },
    {
      "inputs": [
        {
          "internalType": "uint256",
          "name": "rideId",
          "type": "uint256"
        }
      ],
      "name": "rideCompleted",
      "outputs": [],
      "stateMutability": "nonpayable",
      "type": "function"
    },
    {
      "inputs": [],
      "name": "rideCount",
      "outputs": [
        {
          "internalType": "uint256",
          "name": "",
          "type": "uint256"
        }
      ],
      "stateMutability": "view",
      "type": "function"
    },
    {
      "inputs": [
        {
          "internalType": "uint256",
          "name": "",
          "type": "uint256"
        }
      ],
      "name": "rideKeys",
      "outputs": [
        {
          "internalType": "uint256",
          "name": "",
          "type": "uint256"
        }
      ],
      "stateMutability": "view",
      "type": "function"
    },
    {
      "inputs": [
        {
          "internalType": "uint256",
          "name": "",
          "type": "uint256"
        }
      ],
      "name": "rides",
      "outputs": [
        {
          "internalType": "address",
          "name": "driver",
          "type": "address"
        },
        {
          "internalType": "uint256",
          "name": "maxPassengers",
          "type": "uint256"
        },
        {
          "internalType": "uint256",
          "name": "rideFare",
          "type": "uint256"
        },
        {
          "internalType": "uint256",
          "name": "rideId",
          "type": "uint256"
        },
        {
          "internalType": "uint256",
          "name": "time",
          "type": "uint256"
        },
        {
          "internalType": "string",
          "name": "tripDetails",
          "type": "string"
        }
      ],
      "stateMutability": "view",
      "type": "function"
    },
    {
      "inputs": [
        {
          "internalType": "uint256",
          "name": "rideId",
          "type": "uint256"
        }
      ],
      "name": "updateStatus",
      "outputs": [],
      "stateMutability": "nonpayable",
      "type": "function"
    }
  ],
  "transactionHash": "0xf0bc1471b2e60be3a69b906a000684255e28b7f6b2f859ddb11ff7b68671d013",
  "args": [],
  "numDeployments": 2,
  "solcInputHash": "c9a3b8de2bb09cb649276d3c08d3a697",
  "bytecode": "0x6080604052600060035534801561001557600080fd5b506141a8806100256000396000f3fe6080604052600436106100dd5760003560e01c80637c7b0ff41161007f578063a6f07b2911610059578063a6f07b2914610310578063b47c188314610339578063c69b2cf614610364578063d61e720114610380576100dd565b80637c7b0ff414610266578063805bceec146102a957806390aeada2146102d2576100dd565b80635205f112116100bb5780635205f11214610185578063595c9609146101c7578063729a708114610204578063787660c314610235576100dd565b80630294e77f146100e2578063119385621461011f57806319d60f6214610148575b600080fd5b3480156100ee57600080fd5b5061010960048036038101906101049190612e09565b6103a9565b6040516101169190612e45565b60405180910390f35b34801561012b57600080fd5b5061014660048036038101906101419190612e09565b6103cd565b005b34801561015457600080fd5b5061016f600480360381019061016a9190612e09565b6109ce565b60405161017c9190612e45565b60405180910390f35b34801561019157600080fd5b506101ac60048036038101906101a79190612e09565b6109e6565b6040516101be96959493929190612f31565b60405180910390f35b3480156101d357600080fd5b506101ee60048036038101906101e99190612fc5565b610aca565b6040516101fb9190612e45565b60405180910390f35b34801561021057600080fd5b50610219610afb565b60405161022c979695949392919061328d565b60405180910390f35b34801561024157600080fd5b5061024a611110565b60405161025d979695949392919061328d565b60405180910390f35b34801561027257600080fd5b5061028d60048036038101906102889190612e09565b6116e8565b6040516102a0979695949392919061332d565b60405180910390f35b3480156102b557600080fd5b506102d060048036038101906102cb91906134d8565b6118f0565b005b3480156102de57600080fd5b506102f960048036038101906102f49190613623565b611ac3565b60405161030792919061369a565b60405180910390f35b34801561031c57600080fd5b5061033760048036038101906103329190612e09565b611b1f565b005b34801561034557600080fd5b5061034e6126e9565b60405161035b9190612e45565b60405180910390f35b61037e60048036038101906103799190612e09565b6126ef565b005b34801561038c57600080fd5b506103a760048036038101906103a29190612e09565b612ac0565b005b600481815481106103b957600080fd5b906000526020600020016000915090505481565b60008082815260200190815260200160002060000160009054906101000a900473ffffffffffffffffffffffffffffffffffffffff1673ffffffffffffffffffffffffffffffffffffffff163373ffffffffffffffffffffffffffffffffffffffff1614610470576040517f971859530000000000000000000000000000000000000000000000000000000081526004016104679061370f565b60405180910390fd5b600080828152602001908152602001600020600101805490506002600083815260200190815260200160002054146104dd576040517f971859530000000000000000000000000000000000000000000000000000000081526004016104d4906137a1565b60405180910390fd5b60008060008381526020019081526020016000206001018054905090506000806000848152602001908152602001600020600301548261051d91906137f0565b9050670de0b6b3a76400008161053391906137f0565b905060003373ffffffffffffffffffffffffffffffffffffffff168260405161055b90613863565b60006040518083038185875af1925050503d8060008114610598576040519150601f19603f3d011682016040523d82523d6000602084013e61059d565b606091505b50509050806105e1576040517f08c379a00000000000000000000000000000000000000000000000000000000081526004016105d8906138c4565b60405180910390fd5b600060026000868152602001908152602001600020819055506000600160003373ffffffffffffffffffffffffffffffffffffffff1673ffffffffffffffffffffffffffffffffffffffff16815260200190815260200160002080548060200260200160405190810160405280929190818152602001828054801561068557602002820191906000526020600020905b815481526020019060010190808311610671575b505050505090506000806106998388611ac3565b91509150816106dd576040517f971859530000000000000000000000000000000000000000000000000000000081526004016106d490613956565b60405180910390fd5b82600184516106ec9190613976565b815181106106fd576106fc6139aa565b5b6020026020010151600160003373ffffffffffffffffffffffffffffffffffffffff1673ffffffffffffffffffffffffffffffffffffffff1681526020019081526020016000208281548110610756576107556139aa565b5b9060005260206000200181905550600160003373ffffffffffffffffffffffffffffffffffffffff1673ffffffffffffffffffffffffffffffffffffffff1681526020019081526020016000208054806107b3576107b26139d9565b5b600190038181906000526020600020016000905590556000808081526020019081526020016000206000808981526020019081526020016000206000820160009054906101000a900473ffffffffffffffffffffffffffffffffffffffff168160000160006101000a81548173ffffffffffffffffffffffffffffffffffffffff021916908373ffffffffffffffffffffffffffffffffffffffff160217905550600182018160010190805461086a929190612cc6565b5060028201548160020155600382015481600301556004820154816004015560058201548160050155600682018160060190816108a79190613c2a565b50905050600060048054806020026020016040519081016040528092919081815260200182805480156108f957602002820191906000526020600020905b8154815260200190600101908083116108e5575b5050505050905061090a8189611ac3565b809350819450505082610952576040517f9718595300000000000000000000000000000000000000000000000000000000815260040161094990613d5e565b60405180910390fd5b80600182516109619190613976565b81518110610972576109716139aa565b5b60200260200101516004838154811061098e5761098d6139aa565b5b906000526020600020018190555060048054806109ae576109ad6139d9565b5b600190038181906000526020600020016000905590555050505050505050565b60026020528060005260406000206000915090505481565b60006020528060005260406000206000915090508060000160009054906101000a900473ffffffffffffffffffffffffffffffffffffffff1690806002015490806003015490806004015490806005015490806006018054610a4790613a37565b80601f0160208091040260200160405190810160405280929190818152602001828054610a7390613a37565b8015610ac05780601f10610a9557610100808354040283529160200191610ac0565b820191906000526020600020905b815481529060010190602001808311610aa357829003601f168201915b5050505050905086565b60016020528160005260406000208181548110610ae657600080fd5b90600052602060002001600091509150505481565b60608060608060608060606000600160003373ffffffffffffffffffffffffffffffffffffffff1673ffffffffffffffffffffffffffffffffffffffff168152602001908152602001600020805480602002602001604051908101604052809291908181526020018280548015610b9157602002820191906000526020600020905b815481526020019060010190808311610b7d575b505050505090506000815167ffffffffffffffff811115610bb557610bb46133ad565b5b604051908082528060200260200182016040528015610be35781602001602082028036833780820191505090505b5090506000825167ffffffffffffffff811115610c0357610c026133ad565b5b604051908082528060200260200182016040528015610c315781602001602082028036833780820191505090505b5090506000835167ffffffffffffffff811115610c5157610c506133ad565b5b604051908082528060200260200182016040528015610c7f5781602001602082028036833780820191505090505b5090506000845167ffffffffffffffff811115610c9f57610c9e6133ad565b5b604051908082528060200260200182016040528015610ccd5781602001602082028036833780820191505090505b5090506000855167ffffffffffffffff811115610ced57610cec6133ad565b5b604051908082528060200260200182016040528015610d1b5781602001602082028036833780820191505090505b5090506000865167ffffffffffffffff811115610d3b57610d3a6133ad565b5b604051908082528060200260200182016040528015610d695781602001602082028036833780820191505090505b5090506000875167ffffffffffffffff811115610d8957610d886133ad565b5b604051908082528060200260200182016040528015610dbc57816020015b6060815260200190600190039081610da75790505b50905060005b88518110156110e95760008060008b8481518110610de357610de26139aa565b5b602002602001015181526020019081526020016000206040518060e00160405290816000820160009054906101000a900473ffffffffffffffffffffffffffffffffffffffff1673ffffffffffffffffffffffffffffffffffffffff1673ffffffffffffffffffffffffffffffffffffffff16815260200160018201805480602002602001604051908101604052809291908181526020018280548015610edf57602002820191906000526020600020905b8160009054906101000a900473ffffffffffffffffffffffffffffffffffffffff1673ffffffffffffffffffffffffffffffffffffffff1681526020019060010190808311610e95575b5050505050815260200160028201548152602001600382015481526020016004820154815260200160058201548152602001600682018054610f2090613a37565b80601f0160208091040260200160405190810160405280929190818152602001828054610f4c90613a37565b8015610f995780601f10610f6e57610100808354040283529160200191610f99565b820191906000526020600020905b815481529060010190602001808311610f7c57829003601f168201915b505050505081525050905060008160800151146110db578060000151898381518110610fc857610fc76139aa565b5b602002602001019073ffffffffffffffffffffffffffffffffffffffff16908173ffffffffffffffffffffffffffffffffffffffff168152505080602001515188838151811061101b5761101a6139aa565b5b602002602001018181525050806040015187838151811061103f5761103e6139aa565b5b6020026020010181815250508060600151868381518110611063576110626139aa565b5b6020026020010181815250508060800151858381518110611087576110866139aa565b5b6020026020010181815250508060a001518483815181106110ab576110aa6139aa565b5b6020026020010181815250508060c001518383815181106110cf576110ce6139aa565b5b60200260200101819052505b508080600101915050610dc2565b50868686868686869e509e509e509e509e509e509e50505050505050505090919293949596565b60608060608060608060606000600480548060200260200160405190810160405280929190818152602001828054801561116957602002820191906000526020600020905b815481526020019060010190808311611155575b505050505090506000815167ffffffffffffffff81111561118d5761118c6133ad565b5b6040519080825280602002602001820160405280156111bb5781602001602082028036833780820191505090505b5090506000825167ffffffffffffffff8111156111db576111da6133ad565b5b6040519080825280602002602001820160405280156112095781602001602082028036833780820191505090505b5090506000835167ffffffffffffffff811115611229576112286133ad565b5b6040519080825280602002602001820160405280156112575781602001602082028036833780820191505090505b5090506000845167ffffffffffffffff811115611277576112766133ad565b5b6040519080825280602002602001820160405280156112a55781602001602082028036833780820191505090505b5090506000855167ffffffffffffffff8111156112c5576112c46133ad565b5b6040519080825280602002602001820160405280156112f35781602001602082028036833780820191505090505b5090506000865167ffffffffffffffff811115611313576113126133ad565b5b6040519080825280602002602001820160405280156113415781602001602082028036833780820191505090505b5090506000875167ffffffffffffffff811115611361576113606133ad565b5b60405190808252806020026020018201604052801561139457816020015b606081526020019060019003908161137f5790505b50905060005b88518110156116c15760008060008b84815181106113bb576113ba6139aa565b5b602002602001015181526020019081526020016000206040518060e00160405290816000820160009054906101000a900473ffffffffffffffffffffffffffffffffffffffff1673ffffffffffffffffffffffffffffffffffffffff1673ffffffffffffffffffffffffffffffffffffffff168152602001600182018054806020026020016040519081016040528092919081815260200182805480156114b757602002820191906000526020600020905b8160009054906101000a900473ffffffffffffffffffffffffffffffffffffffff1673ffffffffffffffffffffffffffffffffffffffff168152602001906001019080831161146d575b50505050508152602001600282015481526020016003820154815260200160048201548152602001600582015481526020016006820180546114f890613a37565b80601f016020809104026020016040519081016040528092919081815260200182805461152490613a37565b80156115715780601f1061154657610100808354040283529160200191611571565b820191906000526020600020905b81548152906001019060200180831161155457829003601f168201915b505050505081525050905060008160800151146116b35780600001518983815181106115a05761159f6139aa565b5b602002602001019073ffffffffffffffffffffffffffffffffffffffff16908173ffffffffffffffffffffffffffffffffffffffff16815250508060200151518883815181106115f3576115f26139aa565b5b6020026020010181815250508060400151878381518110611617576116166139aa565b5b602002602001018181525050806060015186838151811061163b5761163a6139aa565b5b602002602001018181525050806080015185838151811061165f5761165e6139aa565b5b6020026020010181815250508060a00151848381518110611683576116826139aa565b5b6020026020010181815250508060c001518383815181106116a7576116a66139aa565b5b60200260200101819052505b50808060010191505061139a565b50868686868686869e509e509e509e509e509e509e50505050505050505090919293949596565b600080600080600080606060008060008a81526020019081526020016000206040518060e00160405290816000820160009054906101000a900473ffffffffffffffffffffffffffffffffffffffff1673ffffffffffffffffffffffffffffffffffffffff1673ffffffffffffffffffffffffffffffffffffffff168152602001600182018054806020026020016040519081016040528092919081815260200182805480156117ed57602002820191906000526020600020905b8160009054906101000a900473ffffffffffffffffffffffffffffffffffffffff1673ffffffffffffffffffffffffffffffffffffffff16815260200190600101908083116117a3575b505050505081526020016002820154815260200160038201548152602001600482015481526020016005820154815260200160068201805461182e90613a37565b80601f016020809104026020016040519081016040528092919081815260200182805461185a90613a37565b80156118a75780601f1061187c576101008083540402835291602001916118a7565b820191906000526020600020905b81548152906001019060200180831161188a57829003601f168201915b505050505081525050905080600001518160200151518260400151836060015184608001518560a001518660c00151975097509750975097509750975050919395979092949650565b6001600360008282546119039190613d7e565b925050819055506000600354905060606040518060e001604052803373ffffffffffffffffffffffffffffffffffffffff1681526020018281526020018781526020018681526020018381526020018581526020018481525060008084815260200190815260200160002060008201518160000160006101000a81548173ffffffffffffffffffffffffffffffffffffffff021916908373ffffffffffffffffffffffffffffffffffffffff16021790555060208201518160010190805190602001906119d1929190612d18565b5060408201518160020155606082015181600301556080820151816004015560a0820151816005015560c0820151816006019081611a0f9190613db2565b50905050600160003373ffffffffffffffffffffffffffffffffffffffff1673ffffffffffffffffffffffffffffffffffffffff168152602001908152602001600020829080600181540180825580915050600190039060005260206000200160009091909190915055600060026000848152602001908152602001600020819055506004829080600181540180825580915050600190039060005260206000200160009091909190915055505050505050565b60008060008060005b8651811015611b0f5785878281518110611ae957611ae86139aa565b5b602002602001015103611b025780925060019150611b0f565b8080600101915050611acc565b5080829350935050509250929050565b60008060008381526020019081526020016000206040518060e00160405290816000820160009054906101000a900473ffffffffffffffffffffffffffffffffffffffff1673ffffffffffffffffffffffffffffffffffffffff1673ffffffffffffffffffffffffffffffffffffffff16815260200160018201805480602002602001604051908101604052809291908181526020018280548015611c1957602002820191906000526020600020905b8160009054906101000a900473ffffffffffffffffffffffffffffffffffffffff1673ffffffffffffffffffffffffffffffffffffffff1681526020019060010190808311611bcf575b5050505050815260200160028201548152602001600382015481526020016004820154815260200160058201548152602001600682018054611c5a90613a37565b80601f0160208091040260200160405190810160405280929190818152602001828054611c8690613a37565b8015611cd35780601f10611ca857610100808354040283529160200191611cd3565b820191906000526020600020905b815481529060010190602001808311611cb657829003601f168201915b5050505050815250509050806000015173ffffffffffffffffffffffffffffffffffffffff163373ffffffffffffffffffffffffffffffffffffffff160361221257600081602001519050600082606001519050670de0b6b3a764000081611d3b91906137f0565b905060005b8251811015611e23576000838281518110611d5e57611d5d6139aa565b5b6020026020010151905060008173ffffffffffffffffffffffffffffffffffffffff1684604051611d8e90613863565b60006040518083038185875af1925050503d8060008114611dcb576040519150601f19603f3d011682016040523d82523d6000602084013e611dd0565b606091505b5050905080611e14576040517f08c379a0000000000000000000000000000000000000000000000000000000008152600401611e0b906138c4565b60405180910390fd5b50508080600101915050611d40565b506000600160003373ffffffffffffffffffffffffffffffffffffffff1673ffffffffffffffffffffffffffffffffffffffff168152602001908152602001600020805480602002602001604051908101604052809291908181526020018280548015611eaf57602002820191906000526020600020905b815481526020019060010190808311611e9b575b50505050509050600080611ec38388611ac3565b9150915081611f07576040517f97185953000000000000000000000000000000000000000000000000000000008152600401611efe90613ef6565b60405180910390fd5b8260018451611f169190613976565b81518110611f2757611f266139aa565b5b6020026020010151600160003373ffffffffffffffffffffffffffffffffffffffff1673ffffffffffffffffffffffffffffffffffffffff1681526020019081526020016000208281548110611f8057611f7f6139aa565b5b9060005260206000200181905550600160003373ffffffffffffffffffffffffffffffffffffffff1673ffffffffffffffffffffffffffffffffffffffff168152602001908152602001600020805480611fdd57611fdc6139d9565b5b600190038181906000526020600020016000905590556000808081526020019081526020016000206000808981526020019081526020016000206000820160009054906101000a900473ffffffffffffffffffffffffffffffffffffffff168160000160006101000a81548173ffffffffffffffffffffffffffffffffffffffff021916908373ffffffffffffffffffffffffffffffffffffffff1602179055506001820181600101908054612094929190612cc6565b5060028201548160020155600382015481600301556004820154816004015560058201548160050155600682018160060190816120d19190613c2a565b509050506000600480548060200260200160405190810160405280929190818152602001828054801561212357602002820191906000526020600020905b81548152602001906001019080831161210f575b505050505090506121348189611ac3565b80935081945050508261217c576040517f9718595300000000000000000000000000000000000000000000000000000000815260040161217390613d5e565b60405180910390fd5b806001825161218b9190613976565b8151811061219c5761219b6139aa565b5b6020026020010151600483815481106121b8576121b76139aa565b5b906000526020600020018190555060048054806121d8576121d76139d9565b5b600190038181906000526020600020016000905590556000600260008a8152602001908152602001600020819055505050505050506126e5565b60008033905060008360200151905060005b815181101561228f578273ffffffffffffffffffffffffffffffffffffffff16828281518110612257576122566139aa565b5b602002602001015173ffffffffffffffffffffffffffffffffffffffff16036122825780935061228f565b8080600101915050612224565b50806001825161229f9190613976565b815181106122b0576122af6139aa565b5b602002602001015160008087815260200190815260200160002060010184815481106122df576122de6139aa565b5b9060005260206000200160006101000a81548173ffffffffffffffffffffffffffffffffffffffff021916908373ffffffffffffffffffffffffffffffffffffffff16021790555060008086815260200190815260200160002060010180548061234c5761234b6139d9565b5b6001900381819060005260206000200160006101000a81549073ffffffffffffffffffffffffffffffffffffffff02191690559055600080600160008573ffffffffffffffffffffffffffffffffffffffff1673ffffffffffffffffffffffffffffffffffffffff16815260200190815260200160002080548060200260200160405190810160405280929190818152602001828054801561240d57602002820191906000526020600020905b8154815260200190600101908083116123f9575b5050505050905061241e8188611ac3565b809650819350505081612466576040517f9718595300000000000000000000000000000000000000000000000000000000815260040161245d90613f62565b60405180910390fd5b80600182516124759190613976565b81518110612486576124856139aa565b5b6020026020010151600160003373ffffffffffffffffffffffffffffffffffffffff1673ffffffffffffffffffffffffffffffffffffffff16815260200190815260200160002086815481106124df576124de6139aa565b5b9060005260206000200181905550600160003373ffffffffffffffffffffffffffffffffffffffff1673ffffffffffffffffffffffffffffffffffffffff16815260200190815260200160002080548061253c5761253b6139d9565b5b600190038181906000526020600020016000905590556000866060015190506002816125689190613fb1565b9050670de0b6b3a76400008161257e91906137f0565b905060008573ffffffffffffffffffffffffffffffffffffffff16826040516125a690613863565b60006040518083038185875af1925050503d80600081146125e3576040519150601f19603f3d011682016040523d82523d6000602084013e6125e8565b606091505b505090508061262c576040517f08c379a0000000000000000000000000000000000000000000000000000000008152600401612623906138c4565b60405180910390fd5b6000886000015173ffffffffffffffffffffffffffffffffffffffff168360405161265690613863565b60006040518083038185875af1925050503d8060008114612693576040519150601f19603f3d011682016040523d82523d6000602084013e612698565b606091505b50509050806126dc576040517f08c379a00000000000000000000000000000000000000000000000000000000081526004016126d3906138c4565b60405180910390fd5b50505050505050505b5050565b60035481565b8060008060008381526020019081526020016000206040518060e00160405290816000820160009054906101000a900473ffffffffffffffffffffffffffffffffffffffff1673ffffffffffffffffffffffffffffffffffffffff1673ffffffffffffffffffffffffffffffffffffffff168152602001600182018054806020026020016040519081016040528092919081815260200182805480156127ea57602002820191906000526020600020905b8160009054906101000a900473ffffffffffffffffffffffffffffffffffffffff1673ffffffffffffffffffffffffffffffffffffffff16815260200190600101908083116127a0575b505050505081526020016002820154815260200160038201548152602001600482015481526020016005820154815260200160068201805461282b90613a37565b80601f016020809104026020016040519081016040528092919081815260200182805461285790613a37565b80156128a45780601f10612879576101008083540402835291602001916128a4565b820191906000526020600020905b81548152906001019060200180831161288757829003601f168201915b5050505050815250509050806000015173ffffffffffffffffffffffffffffffffffffffff163373ffffffffffffffffffffffffffffffffffffffff1614806128f557508060400151816020015151145b15612935576040517f9718595300000000000000000000000000000000000000000000000000000000815260040161292c90614054565b60405180910390fd5b60005b8160200151518110156129de578160200151818151811061295c5761295b6139aa565b5b602002602001015173ffffffffffffffffffffffffffffffffffffffff163373ffffffffffffffffffffffffffffffffffffffff16036129d1576040517f971859530000000000000000000000000000000000000000000000000000000081526004016129c8906140c0565b60405180910390fd5b8080600101915050612938565b50600080848152602001908152602001600020600101339080600181540180825580915050600190039060005260206000200160009091909190916101000a81548173ffffffffffffffffffffffffffffffffffffffff021916908373ffffffffffffffffffffffffffffffffffffffff160217905550600160003373ffffffffffffffffffffffffffffffffffffffff1673ffffffffffffffffffffffffffffffffffffffff168152602001908152602001600020839080600181540180825580915050600190039060005260206000200160009091909190915055505050565b60003390506000600160008373ffffffffffffffffffffffffffffffffffffffff1673ffffffffffffffffffffffffffffffffffffffff168152602001908152602001600020805480602002602001604051908101604052809291908181526020018280548015612b5057602002820191906000526020600020905b815481526020019060010190808311612b3c575b50505050509050600080612b648386611ac3565b9150915081612ba8576040517f97185953000000000000000000000000000000000000000000000000000000008152600401612b9f90614152565b60405180910390fd5b6001600260008781526020019081526020016000206000828254612bcc9190613d7e565b925050819055508260018451612be29190613976565b81518110612bf357612bf26139aa565b5b6020026020010151600160008673ffffffffffffffffffffffffffffffffffffffff1673ffffffffffffffffffffffffffffffffffffffff1681526020019081526020016000208281548110612c4c57612c4b6139aa565b5b9060005260206000200181905550600160008573ffffffffffffffffffffffffffffffffffffffff1673ffffffffffffffffffffffffffffffffffffffff168152602001908152602001600020805480612ca957612ca86139d9565b5b600190038181906000526020600020016000905590555050505050565b828054828255906000526020600020908101928215612d075760005260206000209182015b82811115612d06578254825591600101919060010190612ceb565b5b509050612d149190612da2565b5090565b828054828255906000526020600020908101928215612d91579160200282015b82811115612d905782518260006101000a81548173ffffffffffffffffffffffffffffffffffffffff021916908373ffffffffffffffffffffffffffffffffffffffff16021790555091602001919060010190612d38565b5b509050612d9e9190612da2565b5090565b5b80821115612dbb576000816000905550600101612da3565b5090565b6000604051905090565b600080fd5b600080fd5b6000819050919050565b612de681612dd3565b8114612df157600080fd5b50565b600081359050612e0381612ddd565b92915050565b600060208284031215612e1f57612e1e612dc9565b5b6000612e2d84828501612df4565b91505092915050565b612e3f81612dd3565b82525050565b6000602082019050612e5a6000830184612e36565b92915050565b600073ffffffffffffffffffffffffffffffffffffffff82169050919050565b6000612e8b82612e60565b9050919050565b612e9b81612e80565b82525050565b600081519050919050565b600082825260208201905092915050565b60005b83811015612edb578082015181840152602081019050612ec0565b60008484015250505050565b6000601f19601f8301169050919050565b6000612f0382612ea1565b612f0d8185612eac565b9350612f1d818560208601612ebd565b612f2681612ee7565b840191505092915050565b600060c082019050612f466000830189612e92565b612f536020830188612e36565b612f606040830187612e36565b612f6d6060830186612e36565b612f7a6080830185612e36565b81810360a0830152612f8c8184612ef8565b9050979650505050505050565b612fa281612e80565b8114612fad57600080fd5b50565b600081359050612fbf81612f99565b92915050565b60008060408385031215612fdc57612fdb612dc9565b5b6000612fea85828601612fb0565b9250506020612ffb85828601612df4565b9150509250929050565b600081519050919050565b600082825260208201905092915050565b6000819050602082019050919050565b61303a81612e80565b82525050565b600061304c8383613031565b60208301905092915050565b6000602082019050919050565b600061307082613005565b61307a8185613010565b935061308583613021565b8060005b838110156130b657815161309d8882613040565b97506130a883613058565b925050600181019050613089565b5085935050505092915050565b600081519050919050565b600082825260208201905092915050565b6000819050602082019050919050565b6130f881612dd3565b82525050565b600061310a83836130ef565b60208301905092915050565b6000602082019050919050565b600061312e826130c3565b61313881856130ce565b9350613143836130df565b8060005b8381101561317457815161315b88826130fe565b975061316683613116565b925050600181019050613147565b5085935050505092915050565b600081519050919050565b600082825260208201905092915050565b6000819050602082019050919050565b600082825260208201905092915050565b60006131c982612ea1565b6131d381856131ad565b93506131e3818560208601612ebd565b6131ec81612ee7565b840191505092915050565b600061320383836131be565b905092915050565b6000602082019050919050565b600061322382613181565b61322d818561318c565b93508360208202850161323f8561319d565b8060005b8581101561327b578484038952815161325c85826131f7565b94506132678361320b565b925060208a01995050600181019050613243565b50829750879550505050505092915050565b600060e08201905081810360008301526132a7818a613065565b905081810360208301526132bb8189613123565b905081810360408301526132cf8188613123565b905081810360608301526132e38187613123565b905081810360808301526132f78186613123565b905081810360a083015261330b8185613123565b905081810360c083015261331f8184613218565b905098975050505050505050565b600060e082019050613342600083018a612e92565b61334f6020830189612e36565b61335c6040830188612e36565b6133696060830187612e36565b6133766080830186612e36565b61338360a0830185612e36565b81810360c08301526133958184612ef8565b905098975050505050505050565b600080fd5b600080fd5b7f4e487b7100000000000000000000000000000000000000000000000000000000600052604160045260246000fd5b6133e582612ee7565b810181811067ffffffffffffffff82111715613404576134036133ad565b5b80604052505050565b6000613417612dbf565b905061342382826133dc565b919050565b600067ffffffffffffffff821115613443576134426133ad565b5b61344c82612ee7565b9050602081019050919050565b82818337600083830152505050565b600061347b61347684613428565b61340d565b905082815260208101848484011115613497576134966133a8565b5b6134a2848285613459565b509392505050565b600082601f8301126134bf576134be6133a3565b5b81356134cf848260208601613468565b91505092915050565b600080600080608085870312156134f2576134f1612dc9565b5b600061350087828801612df4565b945050602061351187828801612df4565b935050604061352287828801612df4565b925050606085013567ffffffffffffffff81111561354357613542612dce565b5b61354f878288016134aa565b91505092959194509250565b600067ffffffffffffffff821115613576576135756133ad565b5b602082029050602081019050919050565b600080fd5b600061359f61359a8461355b565b61340d565b905080838252602082019050602084028301858111156135c2576135c1613587565b5b835b818110156135eb57806135d78882612df4565b8452602084019350506020810190506135c4565b5050509392505050565b600082601f83011261360a576136096133a3565b5b813561361a84826020860161358c565b91505092915050565b6000806040838503121561363a57613639612dc9565b5b600083013567ffffffffffffffff81111561365857613657612dce565b5b613664858286016135f5565b925050602061367585828601612df4565b9150509250929050565b60008115159050919050565b6136948161367f565b82525050565b60006040820190506136af600083018561368b565b6136bc6020830184612e36565b9392505050565b7f53656e646572206973206e6f7420746865206472697665720000000000000000600082015250565b60006136f9601883612eac565b9150613704826136c3565b602082019050919050565b60006020820190508181036000830152613728816136ec565b9050919050565b7f4e6f7420616c6c2070617373656e676572732068617665206d61726b6564207460008201527f6865207269646520617320636f6d706c65746564000000000000000000000000602082015250565b600061378b603483612eac565b91506137968261372f565b604082019050919050565b600060208201905081810360008301526137ba8161377e565b9050919050565b7f4e487b7100000000000000000000000000000000000000000000000000000000600052601160045260246000fd5b60006137fb82612dd3565b915061380683612dd3565b925082820261381481612dd3565b9150828204841483151761382b5761382a6137c1565b5b5092915050565b600081905092915050565b50565b600061384d600083613832565b91506138588261383d565b600082019050919050565b600061386e82613840565b9150819050919050565b7f43616c6c206d6574686f64206661696c65640000000000000000000000000000600082015250565b60006138ae601283612eac565b91506138b982613878565b602082019050919050565b600060208201905081810360008301526138dd816138a1565b9050919050565b7f52696465206973206e6f7420726567697374657264207769746820647269766560008201527f7200000000000000000000000000000000000000000000000000000000000000602082015250565b6000613940602183612eac565b915061394b826138e4565b604082019050919050565b6000602082019050818103600083015261396f81613933565b9050919050565b600061398182612dd3565b915061398c83612dd3565b92508282039050818111156139a4576139a36137c1565b5b92915050565b7f4e487b7100000000000000000000000000000000000000000000000000000000600052603260045260246000fd5b7f4e487b7100000000000000000000000000000000000000000000000000000000600052603160045260246000fd5b7f4e487b7100000000000000000000000000000000000000000000000000000000600052602260045260246000fd5b60006002820490506001821680613a4f57607f821691505b602082108103613a6257613a61613a08565b5b50919050565b600081549050613a7781613a37565b9050919050565b60008190508160005260206000209050919050565b60006020601f8301049050919050565b600082821b905092915050565b600060088302613ae07fffffffffffffffffffffffffffffffffffffffffffffffffffffffffffffffff82613aa3565b613aea8683613aa3565b95508019841693508086168417925050509392505050565b6000819050919050565b6000613b27613b22613b1d84612dd3565b613b02565b612dd3565b9050919050565b6000819050919050565b613b4183613b0c565b613b55613b4d82613b2e565b848454613ab0565b825550505050565b600090565b613b6a613b5d565b613b75818484613b38565b505050565b5b81811015613b9957613b8e600082613b62565b600181019050613b7b565b5050565b601f821115613bde57613baf81613a7e565b613bb884613a93565b81016020851015613bc7578190505b613bdb613bd385613a93565b830182613b7a565b50505b505050565b600082821c905092915050565b6000613c0160001984600802613be3565b1980831691505092915050565b6000613c1a8383613bf0565b9150826002028217905092915050565b818103613c38575050613d10565b613c4182613a68565b67ffffffffffffffff811115613c5a57613c596133ad565b5b613c648254613a37565b613c6f828285613b9d565b6000601f831160018114613c9e5760008415613c8c578287015490505b613c968582613c0e565b865550613d09565b601f198416613cac87613a7e565b9650613cb786613a7e565b60005b82811015613cdf57848901548255600182019150600185019450602081019050613cba565b86831015613cfc5784890154613cf8601f891682613bf0565b8355505b6001600288020188555050505b5050505050505b565b7f4b657920646f6573206e6f742065786973740000000000000000000000000000600082015250565b6000613d48601283612eac565b9150613d5382613d12565b602082019050919050565b60006020820190508181036000830152613d7781613d3b565b9050919050565b6000613d8982612dd3565b9150613d9483612dd3565b9250828201905080821115613dac57613dab6137c1565b5b92915050565b613dbb82612ea1565b67ffffffffffffffff811115613dd457613dd36133ad565b5b613dde8254613a37565b613de9828285613b9d565b600060209050601f831160018114613e1c5760008415613e0a578287015190505b613e148582613c0e565b865550613e7c565b601f198416613e2a86613a7e565b60005b82811015613e5257848901518255600182019150602085019450602081019050613e2d565b86831015613e6f5784890151613e6b601f891682613bf0565b8355505b6001600288020188555050505b505050505050565b7f52696465206973206e6f7420726567697374657265642077697468207468652060008201527f7573657200000000000000000000000000000000000000000000000000000000602082015250565b6000613ee0602483612eac565b9150613eeb82613e84565b604082019050919050565b60006020820190508181036000830152613f0f81613ed3565b9050919050565b7f52696465206973206e6f74207265676973746572656420776974682075736572600082015250565b6000613f4c602083612eac565b9150613f5782613f16565b602082019050919050565b60006020820190508181036000830152613f7b81613f3f565b9050919050565b7f4e487b7100000000000000000000000000000000000000000000000000000000600052601260045260246000fd5b6000613fbc82612dd3565b9150613fc783612dd3565b925082613fd757613fd6613f82565b5b828204905092915050565b7f4472697665722063616e6e6f7420626f6f6b207468652072696465206f72206d60008201527f6178696d756d2070617373656e67657273207265616368656400000000000000602082015250565b600061403e603983612eac565b915061404982613fe2565b604082019050919050565b6000602082019050818103600083015261406d81614031565b9050919050565b7f596f75206861766520616c726561647920626f6f6b6564207468652072696465600082015250565b60006140aa602083612eac565b91506140b582614074565b602082019050919050565b600060208201905081810360008301526140d98161409d565b9050919050565b7f52696465206973206e6f7420726567697374657265642077697468207061737360008201527f656e676572000000000000000000000000000000000000000000000000000000602082015250565b600061413c602583612eac565b9150614147826140e0565b604082019050919050565b6000602082019050818103600083015261416b8161412f565b905091905056fea264697066735822122062f91b4cfd3ea982fe885222794a5ede24c2d11d2c6609f85e40adaadc85d89364736f6c63430008180033",
  "devdoc": {
    "kind": "dev",
    "methods": {},
    "version": 1
  },
  "userdoc": {
    "kind": "user",
    "methods": {},
    "version": 1
  },
  "storageLayout": {
    "storage": [
      {
        "astId": 26,
        "contract": "contracts/CarPooling.sol:CarPooling",
        "label": "rides",
        "offset": 0,
        "slot": "0",
        "type": "t_mapping(t_uint256,t_struct(Ride)21_storage)"
      },
      {
        "astId": 31,
        "contract": "contracts/CarPooling.sol:CarPooling",
        "label": "addressToRides",
        "offset": 0,
        "slot": "1",
        "type": "t_mapping(t_address,t_array(t_uint256)dyn_storage)"
      },
      {
        "astId": 35,
        "contract": "contracts/CarPooling.sol:CarPooling",
        "label": "completionStatus",
        "offset": 0,
        "slot": "2",
        "type": "t_mapping(t_uint256,t_uint256)"
      },
      {
        "astId": 38,
        "contract": "contracts/CarPooling.sol:CarPooling",
        "label": "rideCount",
        "offset": 0,
        "slot": "3",
        "type": "t_uint256"
      },
      {
        "astId": 41,
        "contract": "contracts/CarPooling.sol:CarPooling",
        "label": "rideKeys",
        "offset": 0,
        "slot": "4",
        "type": "t_array(t_uint256)dyn_storage"
      }
    ],
    "types": {
      "t_address": {
        "encoding": "inplace",
        "label": "address",
        "numberOfBytes": "20"
      },
      "t_array(t_address)dyn_storage": {
        "base": "t_address",
        "encoding": "dynamic_array",
        "label": "address[]",
        "numberOfBytes": "32"
      },
      "t_array(t_uint256)dyn_storage": {
        "base": "t_uint256",
        "encoding": "dynamic_array",
        "label": "uint256[]",
        "numberOfBytes": "32"
      },
      "t_mapping(t_address,t_array(t_uint256)dyn_storage)": {
        "encoding": "mapping",
        "key": "t_address",
        "label": "mapping(address => uint256[])",
        "numberOfBytes": "32",
        "value": "t_array(t_uint256)dyn_storage"
      },
      "t_mapping(t_uint256,t_struct(Ride)21_storage)": {
        "encoding": "mapping",
        "key": "t_uint256",
        "label": "mapping(uint256 => struct CarPooling.Ride)",
        "numberOfBytes": "32",
        "value": "t_struct(Ride)21_storage"
      },
      "t_mapping(t_uint256,t_uint256)": {
        "encoding": "mapping",
        "key": "t_uint256",
        "label": "mapping(uint256 => uint256)",
        "numberOfBytes": "32",
        "value": "t_uint256"
      },
      "t_string_storage": {
        "encoding": "bytes",
        "label": "string",
        "numberOfBytes": "32"
      },
      "t_struct(Ride)21_storage": {
        "encoding": "inplace",
        "label": "struct CarPooling.Ride",
        "members": [
          {
            "astId": 7,
            "contract": "contracts/CarPooling.sol:CarPooling",
            "label": "driver",
            "offset": 0,
            "slot": "0",
            "type": "t_address"
          },
          {
            "astId": 10,
            "contract": "contracts/CarPooling.sol:CarPooling",
            "label": "passengers",
            "offset": 0,
            "slot": "1",
            "type": "t_array(t_address)dyn_storage"
          },
          {
            "astId": 12,
            "contract": "contracts/CarPooling.sol:CarPooling",
            "label": "maxPassengers",
            "offset": 0,
            "slot": "2",
            "type": "t_uint256"
          },
          {
            "astId": 14,
            "contract": "contracts/CarPooling.sol:CarPooling",
            "label": "rideFare",
            "offset": 0,
            "slot": "3",
            "type": "t_uint256"
          },
          {
            "astId": 16,
            "contract": "contracts/CarPooling.sol:CarPooling",
            "label": "rideId",
            "offset": 0,
            "slot": "4",
            "type": "t_uint256"
          },
          {
            "astId": 18,
            "contract": "contracts/CarPooling.sol:CarPooling",
            "label": "time",
            "offset": 0,
            "slot": "5",
            "type": "t_uint256"
          },
          {
            "astId": 20,
            "contract": "contracts/CarPooling.sol:CarPooling",
            "label": "tripDetails",
            "offset": 0,
            "slot": "6",
            "type": "t_string_storage"
          }
        ],
        "numberOfBytes": "224"
      },
      "t_uint256": {
        "encoding": "inplace",
        "label": "uint256",
        "numberOfBytes": "32"
      }
    }
  }
}